{
  "address": "0xe7f1725E7734CE288F8367e1Bb143E90bb3F0512",
  "abi": [
    {
      "inputs": [],
      "stateMutability": "nonpayable",
      "type": "constructor"
    },
    {
      "inputs": [
        {
          "internalType": "uint256",
          "name": "_apartmentID",
          "type": "uint256"
        },
        {
          "internalType": "address",
          "name": "_landlord",
          "type": "address"
        },
        {
          "internalType": "uint256",
          "name": "_rentAmount",
          "type": "uint256"
        },
        {
          "internalType": "uint256",
          "name": "_advancePayment",
          "type": "uint256"
        }
      ],
      "name": "addApartment",
      "outputs": [],
      "stateMutability": "nonpayable",
      "type": "function"
    },
    {
      "inputs": [
        {
          "internalType": "uint256",
          "name": "",
          "type": "uint256"
        }
      ],
      "name": "apartments",
      "outputs": [
        {
          "internalType": "address",
          "name": "landlord",
          "type": "address"
        },
        {
          "internalType": "address",
          "name": "renter",
          "type": "address"
        },
        {
          "internalType": "bool",
          "name": "isRented",
          "type": "bool"
        },
        {
          "internalType": "uint256",
          "name": "rentAmount",
          "type": "uint256"
        },
        {
          "internalType": "uint256",
          "name": "rentalPeriod",
          "type": "uint256"
        },
        {
          "internalType": "uint256",
          "name": "advancePayment",
          "type": "uint256"
        },
        {
          "internalType": "uint256",
          "name": "balance",
          "type": "uint256"
        },
        {
          "internalType": "uint256",
          "name": "startRentTime",
          "type": "uint256"
        },
        {
          "internalType": "uint256",
          "name": "startMonthTime",
          "type": "uint256"
        }
      ],
      "stateMutability": "view",
      "type": "function"
    },
    {
      "inputs": [
        {
          "internalType": "uint256",
          "name": "_apartmentId",
          "type": "uint256"
        }
      ],
      "name": "deleteApartmet",
      "outputs": [],
      "stateMutability": "nonpayable",
      "type": "function"
    },
    {
      "inputs": [
        {
          "internalType": "uint256",
          "name": "_apartmentId",
          "type": "uint256"
        }
      ],
      "name": "getAdvanceBack",
      "outputs": [],
      "stateMutability": "payable",
      "type": "function"
    },
    {
      "inputs": [
        {
          "internalType": "uint256",
          "name": "_apartmentId",
          "type": "uint256"
        }
      ],
      "name": "getApartmentBalance",
      "outputs": [
        {
          "internalType": "uint256",
          "name": "",
          "type": "uint256"
        }
      ],
      "stateMutability": "view",
      "type": "function"
    },
    {
      "inputs": [],
      "name": "getBalance",
      "outputs": [
        {
          "internalType": "uint256",
          "name": "",
          "type": "uint256"
        }
      ],
      "stateMutability": "view",
      "type": "function"
    },
    {
      "inputs": [],
      "name": "getOwner",
      "outputs": [
        {
          "internalType": "address",
          "name": "",
          "type": "address"
        }
      ],
      "stateMutability": "view",
      "type": "function"
    },
    {
      "inputs": [
        {
          "internalType": "uint256",
          "name": "_apartmentId",
          "type": "uint256"
        }
      ],
      "name": "getRemainingTime",
      "outputs": [
        {
          "internalType": "int256",
          "name": "",
          "type": "int256"
        }
      ],
      "stateMutability": "view",
      "type": "function"
    },
    {
      "inputs": [
        {
          "internalType": "uint256",
          "name": "_apartmentId",
          "type": "uint256"
        }
      ],
      "name": "makeRentPayment",
      "outputs": [],
      "stateMutability": "payable",
      "type": "function"
    },
    {
      "inputs": [
        {
          "internalType": "uint256",
          "name": "_apartmentId",
          "type": "uint256"
        },
        {
          "internalType": "address",
          "name": "_renter",
          "type": "address"
        },
        {
          "internalType": "uint256",
          "name": "_rentalPeriod",
          "type": "uint256"
        }
      ],
      "name": "rentApartment",
      "outputs": [],
      "stateMutability": "payable",
      "type": "function"
    },
    {
      "inputs": [
        {
          "internalType": "uint256",
          "name": "_apartmentId",
          "type": "uint256"
        }
      ],
      "name": "withdrawFunds",
      "outputs": [],
      "stateMutability": "payable",
      "type": "function"
    }
  ],
  "transactionHash": "0x6545c1f2bf7363ba805b63492114c6ca7a305f822b54bb907a56569e9826ee51",
  "args": [],
  "numDeployments": 2,
  "solcInputHash": "052ea5322ea5e741ef06b149497b8c05",
  "bytecode": "0x60a060405234801561001057600080fd5b503373ffffffffffffffffffffffffffffffffffffffff1660808173ffffffffffffffffffffffffffffffffffffffff16815250506080516120b661006e60003960008181610625015281816110c8015261149301526120b66000f3fe60806040526004361061009c5760003560e01c80633be1441b116100645780633be1441b1461018b5780634395f80c146101a7578063893d20e8146101c3578063abb8be17146101ee578063c7507a8114610233578063ce1f7c191461024f5761009c565b806312065fe0146100a1578063155dd5ee146100cc578063181e0124146100e85780631e31d2ce1461012557806326c04a3114610162575b600080fd5b3480156100ad57600080fd5b506100b6610278565b6040516100c39190611756565b60405180910390f35b6100e660048036038101906100e191906117a2565b610280565b005b3480156100f457600080fd5b5061010f600480360381019061010a91906117a2565b610479565b60405161011c91906117e8565b60405180910390f35b34801561013157600080fd5b5061014c600480360381019061014791906117a2565b61055e565b6040516101599190611756565b60405180910390f35b34801561016e57600080fd5b50610189600480360381019061018491906117a2565b610623565b005b6101a560048036038101906101a091906117a2565b610801565b005b6101c160048036038101906101bc9190611861565b610c5a565b005b3480156101cf57600080fd5b506101d86110c4565b6040516101e591906118c3565b60405180910390f35b3480156101fa57600080fd5b50610215600480360381019061021091906117a2565b6110ec565b60405161022a999897969594939291906118f9565b60405180910390f35b61024d600480360381019061024891906117a2565b611187565b005b34801561025b57600080fd5b5061027660048036038101906102719190611986565b611491565b005b600047905090565b803373ffffffffffffffffffffffffffffffffffffffff1660008083815260200190815260200160002060000160009054906101000a900473ffffffffffffffffffffffffffffffffffffffff1673ffffffffffffffffffffffffffffffffffffffff1614610324576040517f08c379a000000000000000000000000000000000000000000000000000000000815260040161031b90611a70565b60405180910390fd5b81600073ffffffffffffffffffffffffffffffffffffffff1660008083815260200190815260200160002060000160009054906101000a900473ffffffffffffffffffffffffffffffffffffffff1673ffffffffffffffffffffffffffffffffffffffff16036103c9576040517f08c379a00000000000000000000000000000000000000000000000000000000081526004016103c090611adc565b60405180910390fd5b3373ffffffffffffffffffffffffffffffffffffffff166108fc60008086815260200190815260200160002060040154600080878152602001908152602001600020600501546104199190611b2b565b9081150290604051600060405180830381858888f19350505050158015610444573d6000803e3d6000fd5b506000808481526020019081526020016000206004015460008085815260200190815260200160002060050181905550505050565b600081600073ffffffffffffffffffffffffffffffffffffffff1660008083815260200190815260200160002060000160009054906101000a900473ffffffffffffffffffffffffffffffffffffffff1673ffffffffffffffffffffffffffffffffffffffff1603610520576040517f08c379a000000000000000000000000000000000000000000000000000000000815260040161051790611adc565b60405180910390fd5b60008084815260200190815260200160002060060154600080858152602001908152602001600020600301546105569190611b5f565b915050919050565b600081600073ffffffffffffffffffffffffffffffffffffffff1660008083815260200190815260200160002060000160009054906101000a900473ffffffffffffffffffffffffffffffffffffffff1673ffffffffffffffffffffffffffffffffffffffff1603610605576040517f08c379a00000000000000000000000000000000000000000000000000000000081526004016105fc90611adc565b60405180910390fd5b60008084815260200190815260200160002060050154915050919050565b7f000000000000000000000000000000000000000000000000000000000000000073ffffffffffffffffffffffffffffffffffffffff163373ffffffffffffffffffffffffffffffffffffffff16146106b1576040517f08c379a00000000000000000000000000000000000000000000000000000000081526004016106a890611bee565b60405180910390fd5b80600073ffffffffffffffffffffffffffffffffffffffff1660008083815260200190815260200160002060000160009054906101000a900473ffffffffffffffffffffffffffffffffffffffff1673ffffffffffffffffffffffffffffffffffffffff1603610756576040517f08c379a000000000000000000000000000000000000000000000000000000000815260040161074d90611adc565b60405180910390fd5b600080838152602001908152602001600020600080820160006101000a81549073ffffffffffffffffffffffffffffffffffffffff02191690556001820160006101000a81549073ffffffffffffffffffffffffffffffffffffffff02191690556001820160146101000a81549060ff021916905560028201600090556003820160009055600482016000905560058201600090556006820160009055600782016000905550505050565b80600073ffffffffffffffffffffffffffffffffffffffff1660008083815260200190815260200160002060000160009054906101000a900473ffffffffffffffffffffffffffffffffffffffff1673ffffffffffffffffffffffffffffffffffffffff16036108a6576040517f08c379a000000000000000000000000000000000000000000000000000000000815260040161089d90611adc565b60405180910390fd5b6000806000848152602001908152602001600020604051806101200160405290816000820160009054906101000a900473ffffffffffffffffffffffffffffffffffffffff1673ffffffffffffffffffffffffffffffffffffffff1673ffffffffffffffffffffffffffffffffffffffff1681526020016001820160009054906101000a900473ffffffffffffffffffffffffffffffffffffffff1673ffffffffffffffffffffffffffffffffffffffff1673ffffffffffffffffffffffffffffffffffffffff1681526020016001820160149054906101000a900460ff1615151515815260200160028201548152602001600382015481526020016004820154815260200160058201548152602001600682015481526020016007820154815250509050806020015173ffffffffffffffffffffffffffffffffffffffff163373ffffffffffffffffffffffffffffffffffffffff1614610a3d576040517f08c379a0000000000000000000000000000000000000000000000000000000008152600401610a3490611c80565b60405180910390fd5b80608001518160e0015142610a529190611b2b565b11610a92576040517f08c379a0000000000000000000000000000000000000000000000000000000008152600401610a8990611cec565b60405180910390fd5b3373ffffffffffffffffffffffffffffffffffffffff166108fc8260a001519081150290604051600060405180830381858888f19350505050158015610adc573d6000803e3d6000fd5b506000816020019073ffffffffffffffffffffffffffffffffffffffff16908173ffffffffffffffffffffffffffffffffffffffff16815250506000816080018181525050600081604001901515908115158152505060008160c001818152505060008160e00181815250506000816101000181815250508060008085815260200190815260200160002060008201518160000160006101000a81548173ffffffffffffffffffffffffffffffffffffffff021916908373ffffffffffffffffffffffffffffffffffffffff16021790555060208201518160010160006101000a81548173ffffffffffffffffffffffffffffffffffffffff021916908373ffffffffffffffffffffffffffffffffffffffff16021790555060408201518160010160146101000a81548160ff021916908315150217905550606082015181600201556080820151816003015560a0820151816004015560c0820151816005015560e082015181600601556101008201518160070155905050505050565b82600073ffffffffffffffffffffffffffffffffffffffff1660008083815260200190815260200160002060000160009054906101000a900473ffffffffffffffffffffffffffffffffffffffff1673ffffffffffffffffffffffffffffffffffffffff1603610cff576040517f08c379a0000000000000000000000000000000000000000000000000000000008152600401610cf690611adc565b60405180910390fd5b6000806000868152602001908152602001600020604051806101200160405290816000820160009054906101000a900473ffffffffffffffffffffffffffffffffffffffff1673ffffffffffffffffffffffffffffffffffffffff1673ffffffffffffffffffffffffffffffffffffffff1681526020016001820160009054906101000a900473ffffffffffffffffffffffffffffffffffffffff1673ffffffffffffffffffffffffffffffffffffffff1673ffffffffffffffffffffffffffffffffffffffff1681526020016001820160149054906101000a900460ff1615151515815260200160028201548152602001600382015481526020016004820154815260200160058201548152602001600682015481526020016007820154815250509050600073ffffffffffffffffffffffffffffffffffffffff16816000015173ffffffffffffffffffffffffffffffffffffffff1603610e97576040517f08c379a0000000000000000000000000000000000000000000000000000000008152600401610e8e90611d58565b60405180910390fd5b600015158160400151151514610ee2576040517f08c379a0000000000000000000000000000000000000000000000000000000008152600401610ed990611dc4565b60405180910390fd5b80606001518160a00151610ef69190611de4565b3414610f37576040517f08c379a0000000000000000000000000000000000000000000000000000000008152600401610f2e90611e64565b60405180910390fd5b83816020019073ffffffffffffffffffffffffffffffffffffffff16908173ffffffffffffffffffffffffffffffffffffffff168152505082816080018181525050600181604001901515908115158152505080606001518160a00151610f9e9190611de4565b8160c0018181525050428160e001818152505042816101000181815250508060008087815260200190815260200160002060008201518160000160006101000a81548173ffffffffffffffffffffffffffffffffffffffff021916908373ffffffffffffffffffffffffffffffffffffffff16021790555060208201518160010160006101000a81548173ffffffffffffffffffffffffffffffffffffffff021916908373ffffffffffffffffffffffffffffffffffffffff16021790555060408201518160010160146101000a81548160ff021916908315150217905550606082015181600201556080820151816003015560a0820151816004015560c0820151816005015560e0820151816006015561010082015181600701559050505050505050565b60007f0000000000000000000000000000000000000000000000000000000000000000905090565b60006020528060005260406000206000915090508060000160009054906101000a900473ffffffffffffffffffffffffffffffffffffffff16908060010160009054906101000a900473ffffffffffffffffffffffffffffffffffffffff16908060010160149054906101000a900460ff16908060020154908060030154908060040154908060050154908060060154908060070154905089565b80600073ffffffffffffffffffffffffffffffffffffffff1660008083815260200190815260200160002060000160009054906101000a900473ffffffffffffffffffffffffffffffffffffffff1673ffffffffffffffffffffffffffffffffffffffff160361122c576040517f08c379a000000000000000000000000000000000000000000000000000000000815260040161122390611adc565b60405180910390fd5b6000806000848152602001908152602001600020604051806101200160405290816000820160009054906101000a900473ffffffffffffffffffffffffffffffffffffffff1673ffffffffffffffffffffffffffffffffffffffff1673ffffffffffffffffffffffffffffffffffffffff1681526020016001820160009054906101000a900473ffffffffffffffffffffffffffffffffffffffff1673ffffffffffffffffffffffffffffffffffffffff1673ffffffffffffffffffffffffffffffffffffffff1681526020016001820160149054906101000a900460ff1615151515815260200160028201548152602001600382015481526020016004820154815260200160058201548152602001600682015481526020016007820154815250509050806020015173ffffffffffffffffffffffffffffffffffffffff163373ffffffffffffffffffffffffffffffffffffffff16146113c3576040517f08c379a00000000000000000000000000000000000000000000000000000000081526004016113ba90611ed0565b60405180910390fd5b62278d00816101000151426113d89190611b2b565b1015611419576040517f08c379a000000000000000000000000000000000000000000000000000000000815260040161141090611f62565b60405180910390fd5b8060600151341461145f576040517f08c379a000000000000000000000000000000000000000000000000000000000815260040161145690611ff4565b60405180910390fd5b62278d008161010001516114739190611de4565b60008085815260200190815260200160002060070181905550505050565b7f000000000000000000000000000000000000000000000000000000000000000073ffffffffffffffffffffffffffffffffffffffff163373ffffffffffffffffffffffffffffffffffffffff161461151f576040517f08c379a000000000000000000000000000000000000000000000000000000000815260040161151690611bee565b60405180910390fd5b600073ffffffffffffffffffffffffffffffffffffffff1660008086815260200190815260200160002060000160009054906101000a900473ffffffffffffffffffffffffffffffffffffffff1673ffffffffffffffffffffffffffffffffffffffff16146115c3576040517f08c379a00000000000000000000000000000000000000000000000000000000081526004016115ba90612060565b60405180910390fd5b6040518061012001604052808473ffffffffffffffffffffffffffffffffffffffff168152602001600073ffffffffffffffffffffffffffffffffffffffff168152602001600015158152602001838152602001600081526020018281526020016000815260200160008152602001600081525060008086815260200190815260200160002060008201518160000160006101000a81548173ffffffffffffffffffffffffffffffffffffffff021916908373ffffffffffffffffffffffffffffffffffffffff16021790555060208201518160010160006101000a81548173ffffffffffffffffffffffffffffffffffffffff021916908373ffffffffffffffffffffffffffffffffffffffff16021790555060408201518160010160146101000a81548160ff021916908315150217905550606082015181600201556080820151816003015560a0820151816004015560c0820151816005015560e08201518160060155610100820151816007015590505050505050565b6000819050919050565b6117508161173d565b82525050565b600060208201905061176b6000830184611747565b92915050565b600080fd5b61177f8161173d565b811461178a57600080fd5b50565b60008135905061179c81611776565b92915050565b6000602082840312156117b8576117b7611771565b5b60006117c68482850161178d565b91505092915050565b6000819050919050565b6117e2816117cf565b82525050565b60006020820190506117fd60008301846117d9565b92915050565b600073ffffffffffffffffffffffffffffffffffffffff82169050919050565b600061182e82611803565b9050919050565b61183e81611823565b811461184957600080fd5b50565b60008135905061185b81611835565b92915050565b60008060006060848603121561187a57611879611771565b5b60006118888682870161178d565b93505060206118998682870161184c565b92505060406118aa8682870161178d565b9150509250925092565b6118bd81611823565b82525050565b60006020820190506118d860008301846118b4565b92915050565b60008115159050919050565b6118f3816118de565b82525050565b60006101208201905061190f600083018c6118b4565b61191c602083018b6118b4565b611929604083018a6118ea565b6119366060830189611747565b6119436080830188611747565b61195060a0830187611747565b61195d60c0830186611747565b61196a60e0830185611747565b611978610100830184611747565b9a9950505050505050505050565b600080600080608085870312156119a05761199f611771565b5b60006119ae8782880161178d565b94505060206119bf8782880161184c565b93505060406119d08782880161178d565b92505060606119e18782880161178d565b91505092959194509250565b600082825260208201905092915050565b7f596f7520617265206e6f74206c616e646c6f7264206f6620746869732061706160008201527f72746d656e740000000000000000000000000000000000000000000000000000602082015250565b6000611a5a6026836119ed565b9150611a65826119fe565b604082019050919050565b60006020820190508181036000830152611a8981611a4d565b9050919050565b7f41706172746d656e7420646f65736e2774206578697374000000000000000000600082015250565b6000611ac66017836119ed565b9150611ad182611a90565b602082019050919050565b60006020820190508181036000830152611af581611ab9565b9050919050565b7f4e487b7100000000000000000000000000000000000000000000000000000000600052601160045260246000fd5b6000611b368261173d565b9150611b418361173d565b9250828203905081811115611b5957611b58611afc565b5b92915050565b6000611b6a826117cf565b9150611b75836117cf565b9250828203905081811260008412168282136000851215161715611b9c57611b9b611afc565b5b92915050565b7f596f75277265206e6f7420746865206f776e6572000000000000000000000000600082015250565b6000611bd86014836119ed565b9150611be382611ba2565b602082019050919050565b60006020820190508181036000830152611c0781611bcb565b9050919050565b7f596f75277265206e6f742072656e746572206f66207468652061706172746d6560008201527f6e74000000000000000000000000000000000000000000000000000000000000602082015250565b6000611c6a6022836119ed565b9150611c7582611c0e565b604082019050919050565b60006020820190508181036000830152611c9981611c5d565b9050919050565b7f596f75722072656e74616c20706572696f64206973206e6f74206f7665720000600082015250565b6000611cd6601e836119ed565b9150611ce182611ca0565b602082019050919050565b60006020820190508181036000830152611d0581611cc9565b9050919050565b7f5468652061706172746d656e7420646f65736e27742065786973740000000000600082015250565b6000611d42601b836119ed565b9150611d4d82611d0c565b602082019050919050565b60006020820190508181036000830152611d7181611d35565b9050919050565b7f5468652061706172746d656e7420697320616c72656164792072656e74656400600082015250565b6000611dae601f836119ed565b9150611db982611d78565b602082019050919050565b60006020820190508181036000830152611ddd81611da1565b9050919050565b6000611def8261173d565b9150611dfa8361173d565b9250828201905080821115611e1257611e11611afc565b5b92915050565b7f54686520616d6f756e742073656e74206973206c6f7700000000000000000000600082015250565b6000611e4e6016836119ed565b9150611e5982611e18565b602082019050919050565b60006020820190508181036000830152611e7d81611e41565b9050919050565b7f596f7520646f206e6f742072656e7420746869732061706172746d656e740000600082015250565b6000611eba601e836119ed565b9150611ec582611e84565b602082019050919050565b60006020820190508181036000830152611ee981611ead565b9050919050565b7f596f757220333020646179732068617665206e6f74206265656e20636f6d706c60008201527f6574656420796574000000000000000000000000000000000000000000000000602082015250565b6000611f4c6028836119ed565b9150611f5782611ef0565b604082019050919050565b60006020820190508181036000830152611f7b81611f3f565b9050919050565b7f54686520616d6f756e7420796f752073656e74206973206e6f7420636f72726560008201527f6374000000000000000000000000000000000000000000000000000000000000602082015250565b6000611fde6022836119ed565b9150611fe982611f82565b604082019050919050565b6000602082019050818103600083015261200d81611fd1565b9050919050565b7f546865204170706172746d657420616c72656164792065786973747300000000600082015250565b600061204a601c836119ed565b915061205582612014565b602082019050919050565b600060208201905081810360008301526120798161203d565b905091905056fea2646970667358221220c50e52a0ebe4bd30ee15162e89a77dab555ba97e831f8319eb3e337024675e9e64736f6c63430008110033",
  "devdoc": {
    "kind": "dev",
    "methods": {},
    "version": 1
  },
  "userdoc": {
    "kind": "user",
    "methods": {},
    "version": 1
  },
  "storageLayout": {
    "storage": [
      {
        "astId": 27,
        "contract": "contracts/RentalContract.sol:RentalContract",
        "label": "apartments",
        "offset": 0,
        "slot": "0",
        "type": "t_mapping(t_uint256,t_struct(Apartment)22_storage)"
      }
    ],
    "types": {
      "t_address": {
        "encoding": "inplace",
        "label": "address",
        "numberOfBytes": "20"
      },
      "t_bool": {
        "encoding": "inplace",
        "label": "bool",
        "numberOfBytes": "1"
      },
      "t_mapping(t_uint256,t_struct(Apartment)22_storage)": {
        "encoding": "mapping",
        "key": "t_uint256",
        "label": "mapping(uint256 => struct RentalContract.Apartment)",
        "numberOfBytes": "32",
        "value": "t_struct(Apartment)22_storage"
      },
      "t_struct(Apartment)22_storage": {
        "encoding": "inplace",
        "label": "struct RentalContract.Apartment",
        "members": [
          {
            "astId": 5,
            "contract": "contracts/RentalContract.sol:RentalContract",
            "label": "landlord",
            "offset": 0,
            "slot": "0",
            "type": "t_address"
          },
          {
            "astId": 7,
            "contract": "contracts/RentalContract.sol:RentalContract",
            "label": "renter",
            "offset": 0,
            "slot": "1",
            "type": "t_address"
          },
          {
            "astId": 9,
            "contract": "contracts/RentalContract.sol:RentalContract",
            "label": "isRented",
            "offset": 20,
            "slot": "1",
            "type": "t_bool"
          },
          {
            "astId": 11,
            "contract": "contracts/RentalContract.sol:RentalContract",
            "label": "rentAmount",
            "offset": 0,
            "slot": "2",
            "type": "t_uint256"
          },
          {
            "astId": 13,
            "contract": "contracts/RentalContract.sol:RentalContract",
            "label": "rentalPeriod",
            "offset": 0,
            "slot": "3",
            "type": "t_uint256"
          },
          {
            "astId": 15,
            "contract": "contracts/RentalContract.sol:RentalContract",
            "label": "advancePayment",
            "offset": 0,
            "slot": "4",
            "type": "t_uint256"
          },
          {
            "astId": 17,
            "contract": "contracts/RentalContract.sol:RentalContract",
            "label": "balance",
            "offset": 0,
            "slot": "5",
            "type": "t_uint256"
          },
          {
            "astId": 19,
            "contract": "contracts/RentalContract.sol:RentalContract",
            "label": "startRentTime",
            "offset": 0,
            "slot": "6",
            "type": "t_uint256"
          },
          {
            "astId": 21,
            "contract": "contracts/RentalContract.sol:RentalContract",
            "label": "startMonthTime",
            "offset": 0,
            "slot": "7",
            "type": "t_uint256"
          }
        ],
        "numberOfBytes": "256"
      },
      "t_uint256": {
        "encoding": "inplace",
        "label": "uint256",
        "numberOfBytes": "32"
      }
    }
  }
}