{
  "address": "0x2e3D49C5cb3Fc84d7193701c10AcDDB054AE89E0",
  "abi": [
    {
      "inputs": [],
      "stateMutability": "nonpayable",
      "type": "constructor"
    },
    {
      "inputs": [
        {
          "internalType": "uint256",
          "name": "_apartmentID",
          "type": "uint256"
        },
        {
          "internalType": "address",
          "name": "_landlord",
          "type": "address"
        },
        {
          "internalType": "uint256",
          "name": "_rentAmount",
          "type": "uint256"
        },
        {
          "internalType": "uint256",
          "name": "_advancePayment",
          "type": "uint256"
        }
      ],
      "name": "addApartment",
      "outputs": [],
      "stateMutability": "nonpayable",
      "type": "function"
    },
    {
      "inputs": [
        {
          "internalType": "uint256",
          "name": "",
          "type": "uint256"
        }
      ],
      "name": "apartments",
      "outputs": [
        {
          "internalType": "address",
          "name": "landlord",
          "type": "address"
        },
        {
          "internalType": "address",
          "name": "renter",
          "type": "address"
        },
        {
          "internalType": "bool",
          "name": "isRented",
          "type": "bool"
        },
        {
          "internalType": "uint256",
          "name": "rentAmount",
          "type": "uint256"
        },
        {
          "internalType": "uint256",
          "name": "rentalPeriod",
          "type": "uint256"
        },
        {
          "internalType": "uint256",
          "name": "advancePayment",
          "type": "uint256"
        },
        {
          "internalType": "uint256",
          "name": "balance",
          "type": "uint256"
        },
        {
          "internalType": "uint256",
          "name": "startRentTime",
          "type": "uint256"
        },
        {
          "internalType": "uint256",
          "name": "startMonthTime",
          "type": "uint256"
        }
      ],
      "stateMutability": "view",
      "type": "function"
    },
    {
      "inputs": [
        {
          "internalType": "uint256",
          "name": "_apartmentId",
          "type": "uint256"
        }
      ],
      "name": "deleteApartment",
      "outputs": [],
      "stateMutability": "nonpayable",
      "type": "function"
    },
    {
      "inputs": [
        {
          "internalType": "uint256",
          "name": "_apartmentId",
          "type": "uint256"
        }
      ],
      "name": "endRentalContract",
      "outputs": [],
      "stateMutability": "payable",
      "type": "function"
    },
    {
      "inputs": [
        {
          "internalType": "uint256",
          "name": "_id",
          "type": "uint256"
        }
      ],
      "name": "getApartment",
      "outputs": [
        {
          "components": [
            {
              "internalType": "address",
              "name": "landlord",
              "type": "address"
            },
            {
              "internalType": "address",
              "name": "renter",
              "type": "address"
            },
            {
              "internalType": "bool",
              "name": "isRented",
              "type": "bool"
            },
            {
              "internalType": "uint256",
              "name": "rentAmount",
              "type": "uint256"
            },
            {
              "internalType": "uint256",
              "name": "rentalPeriod",
              "type": "uint256"
            },
            {
              "internalType": "uint256",
              "name": "advancePayment",
              "type": "uint256"
            },
            {
              "internalType": "uint256",
              "name": "balance",
              "type": "uint256"
            },
            {
              "internalType": "uint256",
              "name": "startRentTime",
              "type": "uint256"
            },
            {
              "internalType": "uint256",
              "name": "startMonthTime",
              "type": "uint256"
            }
          ],
          "internalType": "struct RentalContract.Apartment",
          "name": "",
          "type": "tuple"
        }
      ],
      "stateMutability": "view",
      "type": "function"
    },
    {
      "inputs": [
        {
          "internalType": "uint256",
          "name": "_apartmentId",
          "type": "uint256"
        }
      ],
      "name": "getApartmentBalance",
      "outputs": [
        {
          "internalType": "uint256",
          "name": "",
          "type": "uint256"
        }
      ],
      "stateMutability": "view",
      "type": "function"
    },
    {
      "inputs": [],
      "name": "getBalance",
      "outputs": [
        {
          "internalType": "uint256",
          "name": "",
          "type": "uint256"
        }
      ],
      "stateMutability": "view",
      "type": "function"
    },
    {
      "inputs": [],
      "name": "getOwner",
      "outputs": [
        {
          "internalType": "address",
          "name": "",
          "type": "address"
        }
      ],
      "stateMutability": "view",
      "type": "function"
    },
    {
      "inputs": [
        {
          "internalType": "uint256",
          "name": "_apartmentId",
          "type": "uint256"
        }
      ],
      "name": "getRemainingTime",
      "outputs": [
        {
          "internalType": "int256",
          "name": "",
          "type": "int256"
        }
      ],
      "stateMutability": "view",
      "type": "function"
    },
    {
      "inputs": [
        {
          "internalType": "uint256",
          "name": "_apartmentId",
          "type": "uint256"
        }
      ],
      "name": "makeRentPayment",
      "outputs": [],
      "stateMutability": "payable",
      "type": "function"
    },
    {
      "inputs": [
        {
          "internalType": "uint256",
          "name": "_apartmentId",
          "type": "uint256"
        },
        {
          "internalType": "address",
          "name": "_renter",
          "type": "address"
        },
        {
          "internalType": "uint256",
          "name": "_rentalPeriod",
          "type": "uint256"
        }
      ],
      "name": "rentApartment",
      "outputs": [],
      "stateMutability": "payable",
      "type": "function"
    },
    {
      "inputs": [
        {
          "internalType": "uint256",
          "name": "_apartmentId",
          "type": "uint256"
        }
      ],
      "name": "withdrawFunds",
      "outputs": [],
      "stateMutability": "payable",
      "type": "function"
    }
  ],
  "transactionHash": "0x2d98fba7e6111dda7d734a69cb315612e343efd7724d0ad0a01c5df5bc790961",
  "args": [],
  "numDeployments": 2,
  "solcInputHash": "25c0972f7c5aeb9a27b2adf6b4e262dc",
  "bytecode": "0x60a060405234801561001057600080fd5b503373ffffffffffffffffffffffffffffffffffffffff1660808173ffffffffffffffffffffffffffffffffffffffff168152505060805161230361006e60003960008181610a640152818161109d01526115d201526123036000f3fe6080604052600436106100a75760003560e01c80636a7cf01f116100645780636a7cf01f146101b2578063893d20e8146101ce578063abb8be17146101f9578063c4452e061461023e578063c7507a811461027b578063ce1f7c1914610297576100a7565b806312065fe0146100ac578063155dd5ee146100d7578063181e0124146100f35780631e31d2ce146101305780634395f80c1461016d57806355c3fbfb14610189575b600080fd5b3480156100b857600080fd5b506100c16102c0565b6040516100ce919061190f565b60405180910390f35b6100f160048036038101906100ec919061195b565b6102c8565b005b3480156100ff57600080fd5b5061011a6004803603810190610115919061195b565b6104c1565b60405161012791906119a1565b60405180910390f35b34801561013c57600080fd5b506101576004803603810190610152919061195b565b6105a6565b604051610164919061190f565b60405180910390f35b61018760048036038101906101829190611a1a565b61066b565b005b34801561019557600080fd5b506101b060048036038101906101ab919061195b565b610a62565b005b6101cc60048036038101906101c7919061195b565b610c40565b005b3480156101da57600080fd5b506101e3611099565b6040516101f09190611a7c565b60405180910390f35b34801561020557600080fd5b50610220600480360381019061021b919061195b565b6110c1565b60405161023599989796959493929190611ab2565b60405180910390f35b34801561024a57600080fd5b506102656004803603810190610260919061195b565b61115c565b6040516102729190611c23565b60405180910390f35b6102956004803603810190610290919061195b565b61128c565b005b3480156102a357600080fd5b506102be60048036038101906102b99190611c3f565b6115d0565b005b600047905090565b803373ffffffffffffffffffffffffffffffffffffffff1660008083815260200190815260200160002060000160009054906101000a900473ffffffffffffffffffffffffffffffffffffffff1673ffffffffffffffffffffffffffffffffffffffff161461036c576040517f08c379a000000000000000000000000000000000000000000000000000000000815260040161036390611d29565b60405180910390fd5b81600073ffffffffffffffffffffffffffffffffffffffff1660008083815260200190815260200160002060000160009054906101000a900473ffffffffffffffffffffffffffffffffffffffff1673ffffffffffffffffffffffffffffffffffffffff1603610411576040517f08c379a000000000000000000000000000000000000000000000000000000000815260040161040890611d95565b60405180910390fd5b3373ffffffffffffffffffffffffffffffffffffffff166108fc60008086815260200190815260200160002060040154600080878152602001908152602001600020600501546104619190611de4565b9081150290604051600060405180830381858888f1935050505015801561048c573d6000803e3d6000fd5b506000808481526020019081526020016000206004015460008085815260200190815260200160002060050181905550505050565b600081600073ffffffffffffffffffffffffffffffffffffffff1660008083815260200190815260200160002060000160009054906101000a900473ffffffffffffffffffffffffffffffffffffffff1673ffffffffffffffffffffffffffffffffffffffff1603610568576040517f08c379a000000000000000000000000000000000000000000000000000000000815260040161055f90611d95565b60405180910390fd5b600080848152602001908152602001600020600601546000808581526020019081526020016000206003015461059e9190611e18565b915050919050565b600081600073ffffffffffffffffffffffffffffffffffffffff1660008083815260200190815260200160002060000160009054906101000a900473ffffffffffffffffffffffffffffffffffffffff1673ffffffffffffffffffffffffffffffffffffffff160361064d576040517f08c379a000000000000000000000000000000000000000000000000000000000815260040161064490611d95565b60405180910390fd5b60008084815260200190815260200160002060050154915050919050565b82600073ffffffffffffffffffffffffffffffffffffffff1660008083815260200190815260200160002060000160009054906101000a900473ffffffffffffffffffffffffffffffffffffffff1673ffffffffffffffffffffffffffffffffffffffff1603610710576040517f08c379a000000000000000000000000000000000000000000000000000000000815260040161070790611d95565b60405180910390fd5b6000806000868152602001908152602001600020604051806101200160405290816000820160009054906101000a900473ffffffffffffffffffffffffffffffffffffffff1673ffffffffffffffffffffffffffffffffffffffff1673ffffffffffffffffffffffffffffffffffffffff1681526020016001820160009054906101000a900473ffffffffffffffffffffffffffffffffffffffff1673ffffffffffffffffffffffffffffffffffffffff1673ffffffffffffffffffffffffffffffffffffffff1681526020016001820160149054906101000a900460ff1615151515815260200160028201548152602001600382015481526020016004820154815260200160058201548152602001600682015481526020016007820154815250509050600015158160400151151514610880576040517f08c379a000000000000000000000000000000000000000000000000000000000815260040161087790611ea7565b60405180910390fd5b80606001518160a001516108949190611ec7565b34146108d5576040517f08c379a00000000000000000000000000000000000000000000000000000000081526004016108cc90611f47565b60405180910390fd5b83816020019073ffffffffffffffffffffffffffffffffffffffff16908173ffffffffffffffffffffffffffffffffffffffff168152505082816080018181525050600181604001901515908115158152505080606001518160a0015161093c9190611ec7565b8160c0018181525050428160e001818152505042816101000181815250508060008087815260200190815260200160002060008201518160000160006101000a81548173ffffffffffffffffffffffffffffffffffffffff021916908373ffffffffffffffffffffffffffffffffffffffff16021790555060208201518160010160006101000a81548173ffffffffffffffffffffffffffffffffffffffff021916908373ffffffffffffffffffffffffffffffffffffffff16021790555060408201518160010160146101000a81548160ff021916908315150217905550606082015181600201556080820151816003015560a0820151816004015560c0820151816005015560e0820151816006015561010082015181600701559050505050505050565b7f000000000000000000000000000000000000000000000000000000000000000073ffffffffffffffffffffffffffffffffffffffff163373ffffffffffffffffffffffffffffffffffffffff1614610af0576040517f08c379a0000000000000000000000000000000000000000000000000000000008152600401610ae790611fb3565b60405180910390fd5b80600073ffffffffffffffffffffffffffffffffffffffff1660008083815260200190815260200160002060000160009054906101000a900473ffffffffffffffffffffffffffffffffffffffff1673ffffffffffffffffffffffffffffffffffffffff1603610b95576040517f08c379a0000000000000000000000000000000000000000000000000000000008152600401610b8c90611d95565b60405180910390fd5b600080838152602001908152602001600020600080820160006101000a81549073ffffffffffffffffffffffffffffffffffffffff02191690556001820160006101000a81549073ffffffffffffffffffffffffffffffffffffffff02191690556001820160146101000a81549060ff021916905560028201600090556003820160009055600482016000905560058201600090556006820160009055600782016000905550505050565b80600073ffffffffffffffffffffffffffffffffffffffff1660008083815260200190815260200160002060000160009054906101000a900473ffffffffffffffffffffffffffffffffffffffff1673ffffffffffffffffffffffffffffffffffffffff1603610ce5576040517f08c379a0000000000000000000000000000000000000000000000000000000008152600401610cdc90611d95565b60405180910390fd5b6000806000848152602001908152602001600020604051806101200160405290816000820160009054906101000a900473ffffffffffffffffffffffffffffffffffffffff1673ffffffffffffffffffffffffffffffffffffffff1673ffffffffffffffffffffffffffffffffffffffff1681526020016001820160009054906101000a900473ffffffffffffffffffffffffffffffffffffffff1673ffffffffffffffffffffffffffffffffffffffff1673ffffffffffffffffffffffffffffffffffffffff1681526020016001820160149054906101000a900460ff1615151515815260200160028201548152602001600382015481526020016004820154815260200160058201548152602001600682015481526020016007820154815250509050806020015173ffffffffffffffffffffffffffffffffffffffff163373ffffffffffffffffffffffffffffffffffffffff1614610e7c576040517f08c379a0000000000000000000000000000000000000000000000000000000008152600401610e7390612045565b60405180910390fd5b80608001518160e0015142610e919190611de4565b11610ed1576040517f08c379a0000000000000000000000000000000000000000000000000000000008152600401610ec8906120b1565b60405180910390fd5b3373ffffffffffffffffffffffffffffffffffffffff166108fc8260a001519081150290604051600060405180830381858888f19350505050158015610f1b573d6000803e3d6000fd5b506000816020019073ffffffffffffffffffffffffffffffffffffffff16908173ffffffffffffffffffffffffffffffffffffffff16815250506000816080018181525050600081604001901515908115158152505060008160c001818152505060008160e00181815250506000816101000181815250508060008085815260200190815260200160002060008201518160000160006101000a81548173ffffffffffffffffffffffffffffffffffffffff021916908373ffffffffffffffffffffffffffffffffffffffff16021790555060208201518160010160006101000a81548173ffffffffffffffffffffffffffffffffffffffff021916908373ffffffffffffffffffffffffffffffffffffffff16021790555060408201518160010160146101000a81548160ff021916908315150217905550606082015181600201556080820151816003015560a0820151816004015560c0820151816005015560e082015181600601556101008201518160070155905050505050565b60007f0000000000000000000000000000000000000000000000000000000000000000905090565b60006020528060005260406000206000915090508060000160009054906101000a900473ffffffffffffffffffffffffffffffffffffffff16908060010160009054906101000a900473ffffffffffffffffffffffffffffffffffffffff16908060010160149054906101000a900460ff16908060020154908060030154908060040154908060050154908060060154908060070154905089565b61116461187c565b600080838152602001908152602001600020604051806101200160405290816000820160009054906101000a900473ffffffffffffffffffffffffffffffffffffffff1673ffffffffffffffffffffffffffffffffffffffff1673ffffffffffffffffffffffffffffffffffffffff1681526020016001820160009054906101000a900473ffffffffffffffffffffffffffffffffffffffff1673ffffffffffffffffffffffffffffffffffffffff1673ffffffffffffffffffffffffffffffffffffffff1681526020016001820160149054906101000a900460ff1615151515815260200160028201548152602001600382015481526020016004820154815260200160058201548152602001600682015481526020016007820154815250509050919050565b80600073ffffffffffffffffffffffffffffffffffffffff1660008083815260200190815260200160002060000160009054906101000a900473ffffffffffffffffffffffffffffffffffffffff1673ffffffffffffffffffffffffffffffffffffffff1603611331576040517f08c379a000000000000000000000000000000000000000000000000000000000815260040161132890611d95565b60405180910390fd5b6000806000848152602001908152602001600020604051806101200160405290816000820160009054906101000a900473ffffffffffffffffffffffffffffffffffffffff1673ffffffffffffffffffffffffffffffffffffffff1673ffffffffffffffffffffffffffffffffffffffff1681526020016001820160009054906101000a900473ffffffffffffffffffffffffffffffffffffffff1673ffffffffffffffffffffffffffffffffffffffff1673ffffffffffffffffffffffffffffffffffffffff1681526020016001820160149054906101000a900460ff1615151515815260200160028201548152602001600382015481526020016004820154815260200160058201548152602001600682015481526020016007820154815250509050806020015173ffffffffffffffffffffffffffffffffffffffff163373ffffffffffffffffffffffffffffffffffffffff16146114c8576040517f08c379a00000000000000000000000000000000000000000000000000000000081526004016114bf9061211d565b60405180910390fd5b62278d00816101000151426114dd9190611de4565b101561151e576040517f08c379a0000000000000000000000000000000000000000000000000000000008152600401611515906121af565b60405180910390fd5b80606001513414611564576040517f08c379a000000000000000000000000000000000000000000000000000000000815260040161155b90612241565b60405180910390fd5b62278d008161010001516115789190611ec7565b6000808581526020019081526020016000206007018190555034600080858152602001908152602001600020600501546115b29190611ec7565b60008085815260200190815260200160002060050181905550505050565b7f000000000000000000000000000000000000000000000000000000000000000073ffffffffffffffffffffffffffffffffffffffff163373ffffffffffffffffffffffffffffffffffffffff161461165e576040517f08c379a000000000000000000000000000000000000000000000000000000000815260040161165590611fb3565b60405180910390fd5b600073ffffffffffffffffffffffffffffffffffffffff1660008086815260200190815260200160002060000160009054906101000a900473ffffffffffffffffffffffffffffffffffffffff1673ffffffffffffffffffffffffffffffffffffffff1614611702576040517f08c379a00000000000000000000000000000000000000000000000000000000081526004016116f9906122ad565b60405180910390fd5b6040518061012001604052808473ffffffffffffffffffffffffffffffffffffffff168152602001600073ffffffffffffffffffffffffffffffffffffffff168152602001600015158152602001838152602001600081526020018281526020016000815260200160008152602001600081525060008086815260200190815260200160002060008201518160000160006101000a81548173ffffffffffffffffffffffffffffffffffffffff021916908373ffffffffffffffffffffffffffffffffffffffff16021790555060208201518160010160006101000a81548173ffffffffffffffffffffffffffffffffffffffff021916908373ffffffffffffffffffffffffffffffffffffffff16021790555060408201518160010160146101000a81548160ff021916908315150217905550606082015181600201556080820151816003015560a0820151816004015560c0820151816005015560e08201518160060155610100820151816007015590505050505050565b604051806101200160405280600073ffffffffffffffffffffffffffffffffffffffff168152602001600073ffffffffffffffffffffffffffffffffffffffff1681526020016000151581526020016000815260200160008152602001600081526020016000815260200160008152602001600081525090565b6000819050919050565b611909816118f6565b82525050565b60006020820190506119246000830184611900565b92915050565b600080fd5b611938816118f6565b811461194357600080fd5b50565b6000813590506119558161192f565b92915050565b6000602082840312156119715761197061192a565b5b600061197f84828501611946565b91505092915050565b6000819050919050565b61199b81611988565b82525050565b60006020820190506119b66000830184611992565b92915050565b600073ffffffffffffffffffffffffffffffffffffffff82169050919050565b60006119e7826119bc565b9050919050565b6119f7816119dc565b8114611a0257600080fd5b50565b600081359050611a14816119ee565b92915050565b600080600060608486031215611a3357611a3261192a565b5b6000611a4186828701611946565b9350506020611a5286828701611a05565b9250506040611a6386828701611946565b9150509250925092565b611a76816119dc565b82525050565b6000602082019050611a916000830184611a6d565b92915050565b60008115159050919050565b611aac81611a97565b82525050565b600061012082019050611ac8600083018c611a6d565b611ad5602083018b611a6d565b611ae2604083018a611aa3565b611aef6060830189611900565b611afc6080830188611900565b611b0960a0830187611900565b611b1660c0830186611900565b611b2360e0830185611900565b611b31610100830184611900565b9a9950505050505050505050565b611b48816119dc565b82525050565b611b5781611a97565b82525050565b611b66816118f6565b82525050565b61012082016000820151611b836000850182611b3f565b506020820151611b966020850182611b3f565b506040820151611ba96040850182611b4e565b506060820151611bbc6060850182611b5d565b506080820151611bcf6080850182611b5d565b5060a0820151611be260a0850182611b5d565b5060c0820151611bf560c0850182611b5d565b5060e0820151611c0860e0850182611b5d565b50610100820151611c1d610100850182611b5d565b50505050565b600061012082019050611c396000830184611b6c565b92915050565b60008060008060808587031215611c5957611c5861192a565b5b6000611c6787828801611946565b9450506020611c7887828801611a05565b9350506040611c8987828801611946565b9250506060611c9a87828801611946565b91505092959194509250565b600082825260208201905092915050565b7f596f7520617265206e6f74206c616e646c6f7264206f6620746869732061706160008201527f72746d656e740000000000000000000000000000000000000000000000000000602082015250565b6000611d13602683611ca6565b9150611d1e82611cb7565b604082019050919050565b60006020820190508181036000830152611d4281611d06565b9050919050565b7f41706172746d656e7420646f65736e2774206578697374000000000000000000600082015250565b6000611d7f601783611ca6565b9150611d8a82611d49565b602082019050919050565b60006020820190508181036000830152611dae81611d72565b9050919050565b7f4e487b7100000000000000000000000000000000000000000000000000000000600052601160045260246000fd5b6000611def826118f6565b9150611dfa836118f6565b9250828203905081811115611e1257611e11611db5565b5b92915050565b6000611e2382611988565b9150611e2e83611988565b9250828203905081811260008412168282136000851215161715611e5557611e54611db5565b5b92915050565b7f5468652061706172746d656e7420697320616c72656164792072656e74656400600082015250565b6000611e91601f83611ca6565b9150611e9c82611e5b565b602082019050919050565b60006020820190508181036000830152611ec081611e84565b9050919050565b6000611ed2826118f6565b9150611edd836118f6565b9250828201905080821115611ef557611ef4611db5565b5b92915050565b7f54686520616d6f756e742073656e74206973206c6f7700000000000000000000600082015250565b6000611f31601683611ca6565b9150611f3c82611efb565b602082019050919050565b60006020820190508181036000830152611f6081611f24565b9050919050565b7f596f75277265206e6f7420746865206f776e6572000000000000000000000000600082015250565b6000611f9d601483611ca6565b9150611fa882611f67565b602082019050919050565b60006020820190508181036000830152611fcc81611f90565b9050919050565b7f596f75277265206e6f742072656e746572206f66207468652061706172746d6560008201527f6e74000000000000000000000000000000000000000000000000000000000000602082015250565b600061202f602283611ca6565b915061203a82611fd3565b604082019050919050565b6000602082019050818103600083015261205e81612022565b9050919050565b7f596f75722072656e74616c20706572696f64206973206e6f74206f7665720000600082015250565b600061209b601e83611ca6565b91506120a682612065565b602082019050919050565b600060208201905081810360008301526120ca8161208e565b9050919050565b7f596f7520646f206e6f742072656e7420746869732061706172746d656e740000600082015250565b6000612107601e83611ca6565b9150612112826120d1565b602082019050919050565b60006020820190508181036000830152612136816120fa565b9050919050565b7f596f757220333020646179732068617665206e6f74206265656e20636f6d706c60008201527f6574656420796574000000000000000000000000000000000000000000000000602082015250565b6000612199602883611ca6565b91506121a48261213d565b604082019050919050565b600060208201905081810360008301526121c88161218c565b9050919050565b7f54686520616d6f756e7420796f752073656e74206973206e6f7420636f72726560008201527f6374000000000000000000000000000000000000000000000000000000000000602082015250565b600061222b602283611ca6565b9150612236826121cf565b604082019050919050565b6000602082019050818103600083015261225a8161221e565b9050919050565b7f5468652041706172746d656e7420616c72656164792065786973747300000000600082015250565b6000612297601c83611ca6565b91506122a282612261565b602082019050919050565b600060208201905081810360008301526122c68161228a565b905091905056fea26469706673582212200d307df82fb4a0d2a72c982b26e85424a2248f7c16647faeb936968e004e860664736f6c63430008110033",
  "devdoc": {
    "kind": "dev",
    "methods": {},
    "version": 1
  },
  "userdoc": {
    "kind": "user",
    "methods": {},
    "version": 1
  },
  "storageLayout": {
    "storage": [
      {
        "astId": 27,
        "contract": "contracts/RentalContract.sol:RentalContract",
        "label": "apartments",
        "offset": 0,
        "slot": "0",
        "type": "t_mapping(t_uint256,t_struct(Apartment)22_storage)"
      }
    ],
    "types": {
      "t_address": {
        "encoding": "inplace",
        "label": "address",
        "numberOfBytes": "20"
      },
      "t_bool": {
        "encoding": "inplace",
        "label": "bool",
        "numberOfBytes": "1"
      },
      "t_mapping(t_uint256,t_struct(Apartment)22_storage)": {
        "encoding": "mapping",
        "key": "t_uint256",
        "label": "mapping(uint256 => struct RentalContract.Apartment)",
        "numberOfBytes": "32",
        "value": "t_struct(Apartment)22_storage"
      },
      "t_struct(Apartment)22_storage": {
        "encoding": "inplace",
        "label": "struct RentalContract.Apartment",
        "members": [
          {
            "astId": 5,
            "contract": "contracts/RentalContract.sol:RentalContract",
            "label": "landlord",
            "offset": 0,
            "slot": "0",
            "type": "t_address"
          },
          {
            "astId": 7,
            "contract": "contracts/RentalContract.sol:RentalContract",
            "label": "renter",
            "offset": 0,
            "slot": "1",
            "type": "t_address"
          },
          {
            "astId": 9,
            "contract": "contracts/RentalContract.sol:RentalContract",
            "label": "isRented",
            "offset": 20,
            "slot": "1",
            "type": "t_bool"
          },
          {
            "astId": 11,
            "contract": "contracts/RentalContract.sol:RentalContract",
            "label": "rentAmount",
            "offset": 0,
            "slot": "2",
            "type": "t_uint256"
          },
          {
            "astId": 13,
            "contract": "contracts/RentalContract.sol:RentalContract",
            "label": "rentalPeriod",
            "offset": 0,
            "slot": "3",
            "type": "t_uint256"
          },
          {
            "astId": 15,
            "contract": "contracts/RentalContract.sol:RentalContract",
            "label": "advancePayment",
            "offset": 0,
            "slot": "4",
            "type": "t_uint256"
          },
          {
            "astId": 17,
            "contract": "contracts/RentalContract.sol:RentalContract",
            "label": "balance",
            "offset": 0,
            "slot": "5",
            "type": "t_uint256"
          },
          {
            "astId": 19,
            "contract": "contracts/RentalContract.sol:RentalContract",
            "label": "startRentTime",
            "offset": 0,
            "slot": "6",
            "type": "t_uint256"
          },
          {
            "astId": 21,
            "contract": "contracts/RentalContract.sol:RentalContract",
            "label": "startMonthTime",
            "offset": 0,
            "slot": "7",
            "type": "t_uint256"
          }
        ],
        "numberOfBytes": "256"
      },
      "t_uint256": {
        "encoding": "inplace",
        "label": "uint256",
        "numberOfBytes": "32"
      }
    }
  }
}